:020000040800F2
:10000000280700208901000817100008E30E0008E7
:100010001510000891020008A91500080000000052
:1000200000000000000000000000000013140008A1
:1000300093020008000000001910000815140008C1
:10004000A3010008A3010008A3010008A301000800
:10005000A3010008A3010008A3010008A3010008F0
:10006000A3010008A3010008A3010008A3010008E0
:10007000A3010008A3010008A3010008A3010008D0
:10008000A3010008A3010008A3010008A3010008C0
:10009000A3010008A3010008A3010008A3010008B0
:1000A000A3010008A3010008A3010008A3010008A0
:1000B000A3010008A3010008A3010008A301000890
:1000C000A3010008A3010008A3010008A301000880
:1000D000A3010008A3010008A3010008A301000870
:1000E00095020008A3010008A301000800F002F82F
:1000F00000F03AF80AA090E8000C82448344AAF188
:100100000107DA4501D100F02FF8AFF2090EBAE885
:100110000F0013F0010F18BFFB1A43F0010318473B
:100120004440000064400000103A24BF78C878C101
:10013000FAD8520724BF30C830C144BF04680C60ED
:10014000704700000023002400250026103A28BF35
:1001500078C1FBD8520728BF30C148BF0B60704739
:100160001FB51FBD10B510BD00F05DF81146FFF7BB
:10017000F7FF01F077FB00F07BF803B4FFF7F2FF25
:1001800003BC00F07FF80000094880470948004799
:10019000FEE7FEE7FEE7FEE7FEE7FEE7FEE7FEE737
:1001A000FEE7FEE704480549054A064B7047000094
:1001B00075140008ED000008280100202807002021
:1001C00028030020280300204FF0000200B513464A
:1001D00094469646203922BFA0E80C50A0E80C5067
:1001E000B1F12001BFF4F7AF090728BFA0E80C5018
:1001F00048BF0CC05DF804EB890028BF40F8042B11
:1002000008BF704748BF20F8022B11F0804F18BF7D
:1002100000F8012B704770477047704700487047DF
:10022000C800002070477546FFF7F8FFAE4605008E
:100230006946534620F00700854618B020B5FFF701
:10024000B1FFBDE820404FF000064FF000074FF02F
:1002500000084FF0000B21F00701AC46ACE8C009E4
:10026000ACE8C009ACE8C009ACE8C0098D467047ED
:1002700010B50446AFF300802046BDE81040FFF7FC
:100280007CBF000001491820ABBEFEE7260002003B
:10029000FEE770474FF4005000F014B870B5044604
:1002A00000F012F90546601C02D0044800780444AE
:1002B00000F00AF9401BA042FAD370BD00000020F4
:1002C00070470000044910B50A68024202D0086075
:1002D000FFF7F6FF10BD0000140401402DE9F84FB0
:1002E000DFF8B8910024A9F1040B23460F2709F188
:1002F000040AABF1040EC9E00125A5402A40AA4238
:100300007DD1674ED1F804C0ACEB0608B44532D0BD
:1003100014DCBCF1030F3AD009DCBCF1000F2AD089
:10032000BCF1010F1CD0BCF1020F31D11DE0BCF1BA
:10033000110F17D0BCF1120F2AD119E0B8F5881FA0
:1003400019D006DCB8F5803F15D0B8F5801F1FD155
:1003500011E0B8F5001F0ED0B8F5041F18D10AE05F
:10036000CB6815E0CB681B1D12E0CB6808330FE0AB
:10037000CB680C330CE08B682BB1012B4FF00803DA
:1003800003D0456104E0042302E0056100E000239E
:10039000FF2A01D8064601E000F104064FEA840571
:1003A00001D9A5F12005D6F8008007FA05FC28EA56
:1003B0000C0803FA05F548EA0508C6F800804D6800
:1003C000ED0062D5374DAE6946F00106AE61AD690C
:1003D00024F0030605F001050095334D06EB050CEE
:1003E000DCF80850A607360F07FA06F825EA0805D4
:1003F000DFF8B880404503D14FF0000817E044E033
:10040000DFF8AC80404502D14FF001080FE0DFF883
:10041000A480404502D14FF0020808E0DFF8988040
:10042000404502D14FF0030801E04FF0040808FAFC
:1004300006F848EA0508CCF808804D68D9F800604D
:10044000ED024D4601D5164300E096432E604D68FF
:10045000DAF80060AD02554601D5164300E0964338
:100460002E604D68DBF80060AD035D4601D5164394
:1004700000E096432E604D68DEF80060ED0375469F
:1004800001D5164300E096432E60641C0D682A4691
:10049000E5407FF431AFBDE8F88F0000080401406B
:1004A000000011100010024000000140000801404F
:1004B000000C014000100140001401400AB101612C
:1004C00070470904FBE7000001488068704700009E
:1004D0000000002002488168027811448160704762
:1004E00000000020074810B5016841F010010160CC
:1004F000032000F075F8002000F006F800F024F862
:10050000002010BD0020024070B50D4D04464FF490
:100510007A712878B1FBF0F00A490968B1FBF0F074
:1005200000F01DFC48B9102C07D200222146501EB5
:1005300000F036F800206C6070BD012070BD000036
:10054000000000200C0000200C4808B5816941F033
:1005500001018161816901F001010091C16941F0EE
:100560008051C161C06900F080500090044841682A
:1005700021F0E06141F00071416008BD00100240CF
:1005800000000140002809DB00F01F02012191401A
:100590004009800000F1E020C0F800117047000021
:1005A000F0B40E4B1B680C46C3F30223C3F10705DE
:1005B000042D00D90425191D072901D2002300E0CC
:1005C000DB1E012606FA05F1491E214099409E4096
:1005D000761E16403143F0BC00F0E7BF0CED00E0A2
:1005E000064900F0070208684FF6FF03184040EA8A
:1005F0000220034A10430860704700000CED00E041
:100600000000FA052DE9F0470F46050061D0434E82
:10061000306800F00700B84209D2306820F00700C7
:1006200038433060306800F00700B84251D1286884
:100630003B4C810712D5400703D5606840F4E06069
:1006400060602878000703D5606840F460506060FF
:100650006068A96820F0F000084360602878C0074F
:1006600028D06868012810D02168022810D0890796
:1006700000292EDA616821F0030101436160FFF770
:1006800023FF804641F288390DE021688903EFE7B6
:100690008901EDE7FFF718FFA0EB0801494502D9F2
:1006A0000320BDE8F0876068696800F00C00B0EBDB
:1006B000810FEFD1306800F00700B8420BD93068E5
:1006C00020F0070038433060306800F00700B8427F
:1006D00001D00120E5E72878400705D56068E96882
:1006E00020F4E060084360602878000706D5606861
:1006F000296920F4605040EAC100606000F038F8D9
:100700006168084AC1F30311515CC840064908609A
:1007100006480068FFF7F8FE0020C2E7002002400C
:1007200000100240C21800080C0000200400002045
:100730000448054900684968044AC1F30221515C34
:10074000C84070470C00002000100240D21800087A
:100750000448054900684968044AC1F3C221515C54
:10076000C84070470C00002000100240D21800085A
:100770000E4A51680E4801F00C03042B11D0082BCF
:100780000FD10C48C1F38343C903C05C0AD551683B
:10079000084AC1F34041921E515C054A5043B0FBE8
:1007A000F1F07047044948437047000000100240D0
:1007B00000127A00B218000800093D002DE9F84F38
:1007C000040070D02078C04DC00749D06868C0F3DD
:1007D0008100012807D06868C0F38100022809D190
:1007E0006868C00306D52868800339D5606800288A
:1007F000E7D035E06068B0F5803F0BD010B1B0F5C0
:10080000A02F11D0286820F480302860286820F4B8
:10081000802002E0286840F480302860606890B151
:10082000FFF752FE06460AE0286840F48020286060
:10083000F0E700BFFFF748FE801B642873D82868E4
:100840008003F7D50CE0FFF73FFE064605E000BF4A
:10085000FFF73AFE801B6428F0D828688003F7D49D
:1008600020789A4E80074FF001094FF0000839D5E3
:10087000686810F00C0F07D06868C0F38100022888
:1008800009D16868C00306D42868800714D5206998
:10089000012808D110E02069B0B1C6F80090FFF738
:1008A00013FE074605E00AE1FFF70EFEC01B022813
:1008B000C4D828688007F7D52868616920F0F80057
:1008C00040EAC10028600DE0C6F80080FFF7FCFD9B
:1008D000074604E0FFF7F8FDC01B022823D828686C
:1008E0008007F7D4207800072CD57948A169D9B1C1
:1008F000C0F80090FFF7E8FD074604E0FFF7E4FDCD
:10090000C01B02280FD8686A8007F7D571484FF4DA
:10091000FA510068B0FBF1F0009000BF0098411E52
:100920000091FAD20EE080E0C0F80080FFF7CCFD25
:10093000074604E0FFF7C8FDC01B022875D8686AA7
:100940008007F7D42078400760D5E8690027C00009
:1009500008D4E86940F08050E861E869012700F0B8
:10096000805000905C480168C90513D40168834633
:1009700041F480710160FFF7A7FD824606E000BFE9
:10098000FFF7A2FDA0EB0A0064284ED8DBF80000B8
:10099000C005F5D5E06801280AD008B1052813D0B4
:1009A000286A20F001002862286A20F0040002E092
:1009B000286A40F001002862E06841F2883B98B163
:1009C000FFF782FD82460BE0286A40F004002862AF
:1009D000EEE700BFFFF778FDA0EB0A0159455AD8B2
:1009E000286A8007F6D50CE0FFF76EFD824605E029
:1009F000FFF76AFDA0EB0A0159454CD8286A800729
:100A0000F6D41FB1E86920F08050E861E06988B34E
:100A10006968C1F38101022944D00228C6F86080C8
:100A200004D0FFF751FD044638E034E0FFF74CFDF9
:100A3000074604E0FFF748FDC01B02282BD82868B2
:100A40008001F7D4206AB0F5803F05D16868A168BD
:100A500020F4003008436860D4E90801084369685D
:100A600021F4741108436860C6F86090FFF72CFD0C
:100A7000044606E025E000BFFFF726FD001B022824
:100A800009D828688001F7D51BE000BFFFF71CFDDF
:100A9000001B022802D90320BDE8F88F28688001D6
:100AA000F4D40EE00128F7D06868226A00F480319F
:100AB000914204D1616A00F47010884201D0012093
:100AC000EAE70020E8E70000001002400000424290
:100AD000800442420C0000200070004070B5040009
:100AE00009D0606A002540B125616561A56294F86E
:100AF000510040B10CE0012070BD6068B0F5827F0C
:100B0000F4D0E561F2E784F85050204600F040F858
:100B1000022084F851002068016821F04001016042
:100B2000A088218900F4827001F404410843A1895E
:100B300001F400610843217C01F002010843217D9A
:100B400001F001010843218B01F400710843217F6A
:100B500001F03801084394F8201001F080010843A7
:100B6000218D01F40051084321680860A069042127
:100B700001EA1040216848602068C16921F40061E1
:100B8000C1616565012084F85100002070BD00003E
:100B900000B585B000210091019102910391006898
:100BA000104988421BD11048C16941F48041C1619C
:100BB000C16901F480410491816941F008018161BA
:100BC0008069694600F0080004904FF420400090CE
:100BD00002200190032003900448FFF77FFB05B03B
:100BE00000BD00000038004000100240000C014031
:100BF0002DE9F84F044690F8500000269846154617
:100C00008A4601280CD0012784F85070FFF75CFC5D
:100C1000814694F85100B346012804D002269AE098
:100C20000220BDE8F88FBAF1000F6FD0002D6DD013
:100C3000032084F85100C4F854B0C4F830A0A5864D
:100C4000E586C4F838B0A4F83CB0A4F83EB0C4F8C7
:100C500044B0C4F840B0A068B0F5004F09D1206896
:100C6000016821F0400101602068016841F4804181
:100C7000016020680168490603D4016841F0400121
:100C80000160E068B0F5006F606803D058B3012DD3
:100C900029D049E008B1012D1FD1206B21680088BF
:100CA000C86006E020688168890709D5216B09883A
:100CB000C160206B801C2063E08E401EE0860CE04B
:100CC000FFF702FCA0EB0901414503D3B8F1FF3F58
:100CD00003D006E0B8F1000F03D0E08E0028E1D188
:100CE00025E0032635E0206B21680078087306E0D4
:100CF0002068816889070AD5216B09780173206B08
:100D0000401C2063E08E401EE0860DE01FE0FFF7F0
:100D1000DBFBA0EB0901414503D3B8F1FF3F03D052
:100D2000DFE7B8F1000FDCD0E08E0028E0D14A46C2
:100D30004146204600F071F908B120206065A068A6
:100D400018B92068C16880680090606D08B10126FC
:100D500001E084F8517084F850B0304661E710B576
:100D6000401EB0F1807F01D3012010BD4FF0E02480
:100D700060610F21601700F018FC0020A0610720BF
:100D80002061002010BD70B5040004D094F841002B
:100D9000002510B106E0012070BD84F840502046C7
:100DA00000F024F8242084F841002068C16821F470
:100DB0000051C160204600F05FFB2068016921F40A
:100DC000904101612068416921F02A014161206858
:100DD000C16841F40051C1606564202084F841007D
:100DE00084F842006563002070BD000000B585B046
:100DF0000021009101910291039100680F498842FE
:100E000019D10F48C16941F40031C161C16901F4D0
:100E100000310491816941F0040181618069694672
:100E200000F0040004900C20009002200190039038
:100E30000448FFF753FA05B000BD0000004400402D
:100E400000100240000801402DE9F843044690F8E4
:100E500041001F4616460D46202802D00220BDE85C
:100E6000F8837DB176B100206064212084F84100D0
:100E7000FFF72AFBA6848046E684A068B0F5805F71
:100E800002D003E00120EAE7206910B12E460025D8
:100E90000EE000260CE08021204600F049FBA0B9BE
:100EA000AEB116F8010B21684860E08C401EE0846A
:100EB000E08C43464FF0000200970028EBD14FF042
:100EC0004001204600F034FB30B10320C7E735F87D
:100ED000020BC0F30800E6E7202084F84100002060
:100EE000BDE7FEE72DE9F04186B0002433480094C9
:100EF000019402940394816941F010018161816938
:100F000001F010010491816941F020018161816942
:100F100001F020010491816941F00401816181693E
:100F200001F004010491816941F008018161806947
:100F3000DFF88C8000F00800049000222021404659
:100F4000FFF7BCFA4FF4005000901E48CDE90104B1
:100F50001D4F69463846FFF7C1F9202001250226BA
:100F6000CDE90005CDE9024669464046FFF7B6F9EE
:100F70008020CDE90005CDE9024669463846FFF7F5
:100F8000ADF96802CDE90005CDE902466946404663
:100F9000FFF7A4F94020CDE90005CDE902466946F6
:100FA0000A48FFF79BF9002211462820FFF7F8FABC
:100FB0002820FFF7E7FA06B0BDE8F08100100240F4
:100FC000000801400000111000100140000C014019
:100FD0000F4810B50D4901604FF4827141604FF424
:100FE000004181600021C1604FF400720161C0E9DD
:100FF0000512C1610162416281620A21C162FFF78B
:101000006DFD002801D072B6FEE710BD003800402B
:1010100028000020FEE7FEE7704738B50B46009237
:1010200004460022802100F009F8002804D0606DF9
:1010300040F020006065032038BD00002DE9F84332
:101040001E46914688460446089DFFF73DFA401B20
:10105000351AFFF739FA074625480068C0F3CB3048
:10106000684338E0701C37D0FFF72EFAC01BA84247
:1010700003D215B1009860B32CE02068416821F0DC
:10108000E00141606068B0F5827F0BD1A068B0F5E7
:10109000004F02D0B0F5806F04D12068016821F0C4
:1010A00040010160A06AB0F5005F09D120680168C5
:1010B00021F4005101602068016841F40051016091
:1010C000012084F85100002084F850000320BDE87E
:1010D000F8830025401E00902068816838EA0100EE
:1010E00004D000214945BDD10020F0E70121F9E7F6
:1010F0000C000020F8B516460C460546802816D28E
:10110000A02C14D200F0B2F8601CC3B2681CC2B2AA
:10111000E1B2E8B200F0B2F8300A8DF800008DF8C4
:1011200001600221684600F02FF900F0C9F8F8BD0F
:101130002DE9F04110F8015B044617E0207800F03B
:101140000FF96078A41C00F0800730F0800604D00E
:101150003146204600F018F934443FB114F8010B31
:10116000FF2801D14FF4FA70FFF798F86D1EEDB229
:10117000E4D2BDE8F08100002DE9F8431F46DDF818
:10118000208014460D46064680283BD2A02D39D239
:101190003019401E802802DBC6F1800084B2E819B5
:1011A000401EA02802DBC5F1A00087B200F05EF867
:1011B000E819401EC3B23019401EC2B2E9B2F0B203
:1011C00000F05CF84FEA18208DF8000001228DF83D
:1011D000018051020C48FFF771F94FF0FF360DE026
:1011E000254607E03346022269460848FFF700FD1E
:1011F0006D1EADB2002DF5D17F1EBFB2002FEFD115
:1012000000F05EF8BDE8F8830008014028000020E7
:1012100008B500210090A02380220846FFF7ACFF0C
:1012200008BD000010B500F021F80E4C002280210E
:101230002046FFF743F90520FFF730F8012280210F
:101240002046FFF73BF90848FFF772FF06483B309E
:10125000FFF76EFF04484830FFF76AFFBDE8104013
:1012600000F02EB800100140EE400008002240219E
:101270000148FFF723B90000000C0140F8B507460C
:101280001C4615460E462A2000F06AF80020009001
:101290008DF801708DF803500421684600F074F851
:1012A0002B2000F05DF88DF801608DF803400421DB
:1012B000684600F069F82C2000F052F8F8BD0000F4
:1012C000012240210148FFF7F9B80000000C01405D
:1012D0000FB42DE9FF5F4A1EC3F307263244D4B290
:1012E000DFB2421EDDE913A93A44D2B2C9B2C0B29C
:1012F0002346FFF7C3FF00252CE0109812992038F1
:1013000000FB0650002431F810804FEA1A200290AA
:101310000AF0FF0001904FEA192009F0FF0B00903E
:1013200015E000BF08FA04F0000406D502988DF815
:101330000C0001988DF80D0004E000988DF80C0069
:101340008DF80DB0022103A800F01EF8641CA7421E
:10135000E8D86D1CAE42D0D8BDE8FF1F5DF814FB85
:1013600001B500224FF400710548FFF7A7F84FF0D0
:10137000FF33012269460348FFF73AFC08BD00002D
:10138000000801402800002070B50D4604460122E7
:1013900051020648FFF792F8AAB22146BDE8704014
:1013A0004FF0FF330248FFF723BC00000008014064
:1013B000280000202DE9FE4F9846DDE90DA91446CE
:1013C0000E460546DDF830B0FFF750FF08F0FF0786
:1013D00018E07819802809D3C8F3072081198EB244
:1013E00000253044A02810D2202A0AD0CDF800B021
:1013F000CDE901A9434631462846FFF769FF781930
:1014000085B2641C2278002AE3D1BDE8FE4FFFF7C5
:1014100057BF7047FFF75EB830B58FB028216846D8
:10142000FEF7D2FE14210AA8FEF7CEFE0225012007
:10143000049000951020059000244FF46010CDE931
:10144000084007956846FFF7B9F908B172B6FEE79C
:101450000F20CDE90A054FF48060CDE90C40022150
:101460000AA80E94FFF7CEF8002801D072B6FEE766
:101470000FB030BD7047000070B5044600680169C8
:10148000E26821F44051114301612169A0680843D9
:10149000616908432168CA6841F20C639A430243B8
:1014A000CA6020684169A26921F440711143416119
:1014B0001E492068884202D1FFF74AF901E0FFF790
:1014C00037F900EBC00101EB001260686421800075
:1014D000B2FBF0F3B3FBF1F36FF018067343B2FB0A
:1014E000F0F5B2FBF0F605EB8305322303EB0515AF
:1014F000B5FBF1F5B6FBF1F605F0F00505EB0615C9
:10150000B2FBF0F6B2FBF0F0B0FBF1F06FF01802B6
:10151000504306EB800003EB0010B0FBF1F02168B4
:1015200000F00F002844886070BD000000380140C2
:101530002DE9F041984617460E460446069D27E0E1
:10154000681C25D02DB1FEF7BFFFA0EB0800A84214
:101550001ED920680C3050E8001F21F4D07140E8FB
:101560000012002AF5D12068143050E8001F21F045
:10157000010140E80012002AF5D1202084F8410042
:1015800084F84200002084F840000320BDE8F08188
:101590002068006836EA000004D00020B842CFD0AE
:1015A0000020F3E70120F9E7FEE70907090E00280C
:1015B00004DB00F1E02080F80014704700F00F0019
:1015C00000F1E02080F8141D704700000EB5FFF711
:1015D00029FE06A24FF0FF3307CA8DE80700082254
:1015E00069460548FFF730FC0EBD00005265616496
:1015F00079210D0A00000000800000202DE9FE4F37
:101600000020FFF705FE00244FF47846A0B23246D2
:101610000021FFF76FFDA0B232469F21FFF76AFD60
:10162000641C802CF2DB0024A1B232460020FFF7BC
:1016300061FDA1B232467F20FFF75CFD641CA02C47
:10164000F2DB40F6B830FEF729FE0020FFF7E0FDA0
:1016500000255A48CDE9016541680091036858A208
:1016600029462846FFF7A6FE4FF4FC67614CCDE9FA
:1016700001756068009060A21E2100202368FFF7BA
:1016800099FE4FF01F096448CDE90195416800912A
:10169000036862A254210020FFF78CFE4FF4FA6029
:1016A000FEF7FCFD0020FFF7B3FD4FF6FF78CDE914
:1016B00001856068009000215BA208462368FFF75F
:1016C00079FE4FF4FA7A5046FEF7E8FD1F20FFF747
:1016D0009FFDCDE9015960680090002154A20846A1
:1016E0002368FFF767FE5046FEF7D8FD3046FFF748
:1016F0008FFDCDE901566068009000214EA208469A
:101700002368FFF757FE5046FEF7C8FD3846FFF73F
:101710007FFDCDE9015760680090002147A208468F
:101720002368FFF747FE5046FEF7B8FD40F2FF760C
:101730003046FFF76DFDCDE901566068009000214D
:1017400040A208462368FFF735FE5046FEF7A6FD87
:101750004FF61F063046FFF75BFDCDE90156606886
:101760000090002139A208462368FFF723FE504667
:10177000FEF794FD4FF6E0763046FFF749FDCDE9E0
:10178000015660680090002132A208462368FFF7E6
:1017900011FE5046FEF782FD4046FFF739FDCDE9C8
:1017A00001586068009000212CA208462368FFF7CA
:1017B00001FE5046BDE8FE4FFEF770BD1000002050
:1017C000466F6E745F377831302C20726564206FFD
:1017D0006E20626C61636B2C206C6F72656D20698A
:1017E0007073756D20646F6C6F7220736974206103
:1017F0006D65740018000020466F6E745F3131789B
:1018000031382C20677265656E2C206C6F72656DA7
:1018100020697073756D000020000020466F6E74A3
:101820005F31367832360000424C41434B000000B5
:10183000424C554500000000524544004752454582
:101840004E0000004359414E000000004D41474505
:101850004E54410059454C4C4F570000574849548D
:1018600045000000FEF73EFEFFF7D6FDFFF73AFB0E
:10187000FFF7AEFB0D480C490C2201604FF4E1313B
:10188000416000218160C160C0E904128161C161D1
:10189000FFF779FA08B172B6FEE7FFF797FE00BFCF
:1018A000FFF7ACFEFCE70000004400408000002091
:1018B000010202030405060708090A0B0C0D0E0FAE
:1018C00010100000000000000000010203040607E1
:1018D00008090000000001020304000000000000ED
:1018E00000000000000000000000000000000010E8
:1018F0000010001000100010001000000010000088
:10190000000000280028002800000000000000005F
:1019100000000000000000240024007C0024004897
:10192000007C0048004800000000003800540050CF
:10193000003800140054005400380010000000204B
:101940000054005800300028005400140008000023
:101950000000001000280028001000340048004853
:101960000034000000000010001000100000000013
:10197000000000000000000000000008001000202F
:10198000002000200020002000200010000800207F
:1019900000100008000800080008000800080010F7
:1019A0000020001000380010002800000000000097
:1019B0000000000000000000000000100010007C8B
:1019C00000100010000000000000000000000000F7
:1019D00000000000000000000010001000100000D7
:1019E00000000000000000000038000000000000BF
:1019F00000000000000000000000000000000000E7
:101A00000010000000000008000800100010001086
:101A100000100020002000000000003800440044B6
:101A2000005400440044004400380000000000104E
:101A300000300050001000100010001000100000D6
:101A4000000000380044004400040008001000209A
:101A5000007C00000000003800440004001800046E
:101A600000040044003800000000000800180028AE
:101A700000280048007C0008000800000000007CEE
:101A800000400040007800040004004400380000DA
:101A90000000003800440040007800440044004446
:101AA000003800000000007C000400080010001056
:101AB0000020002000200000000000380044004406
:101AC00000380044004400440038000000000038A2
:101AD000004400440044003C00040044003800007E
:101AE00000000000000000100000000000000000E6
:101AF00000100000000000000000000000100000C6
:101B00000000000000100010001000000000000C99
:101B1000003000400030000C000000000000000019
:101B200000000000007C0000007C000000000000BD
:101B300000000000000000600018000400180060B1
:101B400000000000000000380044000400080010FD
:101B50000010000000100000000000380044004C9D
:101B60000054005C004000400038000000000010FD
:101B70000028002800280028007C004400440000C1
:101B80000000007800440044007800440044004411
:101B90000078000000000038004400400040004091
:101BA000004000440038000000000070004800447D
:101BB0000044004400440048007000000000007C25
:101BC00000400040007C004000400040007C0000DD
:101BD0000000007C004000400078004000400040D1
:101BE0000040000000000038004400400040005C5D
:101BF0000044004400380000000000440044004459
:101C0000007C004400440044004400000000003810
:101C1000001000100010001000100010003800002C
:101C20000000000400040004000400040004004458
:101C300000380000000000440048005000600050E0
:101C40000048004800440000000000400040004000
:101C50000040004000400040007C000000000044C4
:101C6000006C006C00540044004400440044000038
:101C7000000000440064006400540054004C004C18
:101C800000440000000000380044004400440044C8
:101C90000044004400380000000000780044004484
:101CA0000044007800400040004000000000003880
:101CB0000044004400440044004400540038000440
:101CC00000000078004400440044007800480048C8
:101CD00000440000000000380044004000300008CC
:101CE00000040044003800000000007C00100010D8
:101CF0000010001000100010001000000000004450
:101D00000044004400440044004400440038000003
:101D1000000000440044004400280028002800106F
:101D2000001000000000004400440054005400541F
:101D3000006C002800280000000000440028002853
:101D4000001000100028002800440000000000449B
:101D500000440028002800100010001000100000AF
:101D60000000007C0004000800100010002000406B
:101D7000007C00000000001800100010001000108F
:101D800000100010001000100018002000200010AB
:101D900000100010001000080008000000000030D3
:101DA00000100010001000100010001000100010B3
:101DB000003000100028002800440000000000004F
:101DC0000000000000000000000000000000000013
:101DD000000000000000000000FE002000100000D5
:101DE00000000000000000000000000000000000F3
:101DF000000000380044003C0044004C0034000067
:101E000000000040004000580064004400440064AA
:101E100000580000000000000000003800440040AE
:101E200000400044003800000000000400040034BA
:101E3000004C00440044004C00340000000000004E
:101E4000000000380044007C0040004400380000DE
:101E50000000000C0010007C0010001000100010AA
:101E6000001000000000000000000034004C00449E
:101E70000044004C0034000400780040004000584A
:101E800000640044004400440044000000000010CE
:101E90000000007000100010001000100010000082
:101EA0000000001000000070001000100010001072
:101EB0000010001000E000400040004800500060AA
:101EC00000500048004400000000007000100010A6
:101ED00000100010001000100010000000000000B2
:101EE00000000078005400540054005400540000D6
:101EF000000000000000005800640044004400445A
:101F000000440000000000000000003800440044CD
:101F100000440044003800000000000000000058A9
:101F20000064004400440064005800400040000089
:101F300000000034004C00440044004C0034000415
:101F40000004000000000058006400400040004011
:101F50000040000000000000000000380044003095
:101F60000008004400380000000000200020007835
:101F700000200020002000200018000000000000C9
:101F800000000044004400440044004C00340000C1
:101F90000000000000000044004400280028002841
:101FA0000010000000000000000000540054005425
:101FB000006C002800280000000000000000004421
:101FC000002800100010002800440000000000005D
:101FD00000000044004400280028001000100010F9
:101FE000006000000000007C00080010002000409D
:101FF000007C0000000000180010001000100020FD
:102000000020001000100010001800100010001038
:102010000010001000100010001000100010003020
:102020000010001000100008000800100010001040
:1020300000300000000000000074004C00000000B0
:102040000000000000000000000000000000000090
:102050000000000000000000000000000000000080
:10206000000000000000000000000000000C000C58
:10207000000C000C000C000C000C000C000C000C00
:10208000000C0000000C000C00000000000000002C
:10209000001B001B001B001B001B000000000000B9
:1020A0000000000000000000000000000000000030
:1020B000000000008019801980198019C07FC07F3E
:1020C00080190033C07FC07F0033003300330033FA
:1020D0000000000000000000001E003F80758065C9
:1020E0000074003C001E00078005806580658075D7
:1020F000003F001E0004000400000000007000D833
:1021000040D8C0D880D900730006000C801BC036B0
:10211000C066C046C006800300000000000000004A
:10212000001E003F003300330033001E000CC03C93
:10213000C066806380618063C03E801C0000000038
:1021400000000000000C000C000C000C000C000053
:10215000000000000000000000000000000000007F
:1021600000000000000080000001000300060006DF
:102170000004000C000C000C000C000C000C00040F
:102180000006000600030001800000200010001877
:10219000000C000C00040006000600060006000605
:1021A00000060004000C000C0018001000200000C5
:1021B000000C002D003F001E003300000000000056
:1021C000000000000000000000000000000000000F
:1021D0000000000000000000000C000C000C000CCF
:1021E000C0FFC0FF000C000C000C000C0000000041
:1021F00000000000000000000000000000000000DF
:1022000000000000000000000000000000000000CE
:10221000000C000C00040004000800000000000096
:10222000000000000000000000000000001E001E72
:10223000000000000000000000000000000000009E
:10224000000000000000000000000000000000008E
:102250000000000000000000000C000C0000000066
:102260000000000000030003000300060006000653
:102270000006000C000C000C000C001800180018E0
:102280000000000000000000001E003F00338061DD
:1022900080618061806D806D8061806180610033CC
:1022A000003F001E00000000000000000006000EBD
:1022B000001E003600260006000600060006000686
:1022C00000060006000600060000000000000000F6
:1022D000001E003F80738061806180010003000662
:1022E000000C001800300060807F807F000000003C
:1022F00000000000001C003E006300630003000EAD
:10230000000E00038001800180618073003F001E89
:1023100000000000000000000006000E000E001E7D
:10232000001E0016003600360066807F807F0006A3
:10233000000600060000000000000000007F007F93
:10234000006000600060006E007F8063800180019B
:1023500080618073003F001E00000000000000004C
:10236000001E003F803380610060006E007F80733C
:102370008061806180618033003F001E00000000AA
:1023800000000000807F807F8001000300030006C2
:102390000006000C000C000C0008001800180018C3
:1023A0000000000000000000001E003F806380610C
:1023B00080610021001E003F80618061806180613A
:1023C000003F001E0000000000000000001E003F53
:1023D00000738061806180618073803F801D800117
:1023E00080610073003F001E00000000000000003C
:1023F0000000000000000000000C000C00000000C5
:102400000000000000000000000C000C00000000B4
:102410000000000000000000000000000000000CB0
:10242000000C00000000000000000000000C000C88
:10243000000400040008000000000000000080000C
:102440008003000E003800600038000E800380001A
:10245000000000000000000000000000000000007C
:1024600000000000807F807F00000000807F807F70
:10247000000000000000000000000000000000005C
:1024800000000000000000400070001C00078001F8
:102490000007001C00700040000000000000000069
:1024A00000000000001F803FC071C060C000C0017C
:1024B00080030007000E000C000C0000000C000C54
:1024C0000000000000000000001E003F803180710D
:1024D0008063806F806D806D806F806700600032E8
:1024E000003E001C0000000000000000000E000E76
:1024F000001B001B001B001B80318031803F803F90
:102500008031C060C060C0600000000000000000BA
:10251000007C007E0063006300630063007E007E39
:102520000063806180618063007F007E00000000A6
:1025300000000000001E003F8031806100600060EC
:10254000006000600060006080618031003F001E1C
:102550000000000000000000007C007F006380633A
:10256000806180618061806180618061006300635F
:10257000007E007C0000000000000000807F807F63
:102580000060006000600060007F007F006000600D
:1025900000600060807F807F00000000000000007D
:1025A000807F807F0060006000600060007F007FAF
:1025B00000600060006000600060006000000000DB
:1025C00000000000001E003F80318061006000605C
:1025D000006080638063806180618031803F001E85
:1025E0000000000000000000806180618061806167
:1025F00080618061807F807F806180618061806197
:10260000806180610000000000000000003F003F8A
:10261000000C000C000C000C000C000C000C000C5A
:10262000000C000C003F003F000000000000000014
:102630008001800180018001800180018001800192
:102640008001806180618073003F001E00000000F7
:1026500000000000C0608061006300660066006CDE
:102660000078007C00660066006380618061C06065
:1026700000000000000000000060006000600060DA
:10268000006000600060006000600060006000604A
:10269000807F807F0000000000000000C071C071DA
:1026A000C07BC07AC06AC06AC06EC064C060C060CF
:1026B000C060C060C060C06000000000000000009A
:1026C00080718071807980798079806D806D806D76
:1026D000806580678067806780638063000000009A
:1026E00000000000001E003F0033806180618061B7
:1026F000806180618061806180610033003F001EE5
:102700000000000000000000007E007F8063806108
:10271000806180618063007F007E006000600060F7
:10272000006000600000000000000000001E003F8C
:10273000003380618061806180618061806180653B
:1027400080670033803F401E000000000000000052
:10275000007E007F8063806180618063007F007EF7
:1027600000660063006380618061C060000000005B
:1027700000000000000E001F803180310030003862
:10278000001E00078003806180618031003F001ED1
:102790000000000000000000C0FFC0FF000C000CA3
:1027A000000C000C000C000C000C000C000C000CC9
:1027B000000C000C0000000000000000806180613F
:1027C0008061806180618061806180618061806101
:1027D00080618073003F001E0000000000000000C8
:1027E000C060C060C060803180318031001B001B40
:1027F000001B001B000E000E000E00040000000075
:1028000000000000C0C0C0C0C0C0C0C0C0C0C0CCBC
:10281000804C804C805E80528052807380618061E9
:102820000000000000000000C0C080608061003334
:10283000003B001E000C000C001E001F003B8071BE
:102840008061C0C00000000000000000C0C08061C6
:10285000806100330033001E001E000C000C000CD1
:10286000000C000C000C000C000000000000000038
:10287000803F803F8001000300030006000C000C35
:102880000018001800300060807F807F000000008A
:102890000000000F000F000C000C000C000C000CDE
:1028A000000C000C000C000C000C000C000C000CC8
:1028B000000C000F000F0000001800180018000C9A
:1028C000000C000C000C00060006000600060003C9
:1028D00000030003000000000000001E001E0006B0
:1028E00000060006000600060006000600060006B8
:1028F00000060006000600060006001E001E00007E
:10290000000C000C001E0012003300338061806157
:1029100000000000000000000000000000000000B7
:1029200000000000000000000000000000000000A7
:102930000000000000000000000000000000000097
:102940000000E0FF0000000000380018000C00004C
:102950000000000000000000000000000000000077
:102960000000000000000000000000000000000067
:1029700000000000001F803F80618001801F803FB9
:1029800080618063807FC03800000000000000008C
:102990000060006000600060006E007F80738061F6
:1029A0008061806180618073007F006E00000000A4
:1029B000000000000000000000000000001E003FBA
:1029C000807380610060006080618073003F001E42
:1029D00000000000000000008001800180018001F3
:1029E000801D803F80738061806180618061807321
:1029F000803F801D0000000000000000000000007B
:102A000000000000001E003F00738061807F807F17
:102A100000608071003F001E000000000000000008
:102A2000C007C00F000C000C807F807F000C000CE2
:102A3000000C000C000C000C000C000C000000004E
:102A400000000000000000000000801D803F807337
:102A500080618061806180618073803F801D800122
:102A60008063007F003E0000006000600060006046
:102A7000006F807F80718061806180618061806192
:102A80008061806100000000000000000006000678
:102A900000000000003E003E0006000600060006A2
:102AA0000006000600060006000000000000000608
:102AB000000600000000003E003E00060006000682
:102AC0000006000600060006000600060046007E1E
:102AD000003C0000006000600060006080610063F6
:102AE0000066006C007C0076006300638061C0605B
:102AF0000000000000000000003E003E000600064E
:102B00000006000600060006000600060006000695
:102B100000060006000000000000000000000000A9
:102B20000000000080DDC0FFC0CEC0CCC0CCC0CC57
:102B3000C0CCC0CCC0CCC0CC000000000000000065
:102B40000000000000000000006F807F8071806145
:102B5000806180618061806180618061000000002F
:102B6000000000000000000000000000001E003F08
:102B7000807380618061806180618073003F001E8E
:102B80000000000000000000000000000000006ED7
:102B9000007F807380618061806180618073007FCD
:102BA000006E006000600060006000000000000037
:102BB0000000801D803F8073806180618061806142
:102BC0008073803F801D80018001800180010000B2
:102BD00000000000000000000067803F0039003066
:102BE00000300030003000300030003000000000C5
:102BF000000000000000000000000000001E803FF8
:102C000080610060007F803F80018061007F001E46
:102C1000000000000000000000000008001800187C
:102C2000007F007F00180018001800180018001816
:102C3000801F800F00000000000000000000000066
:102C4000000000008061806180618061806180613E
:102C500080618063807F803D0000000000000000F4
:102C60000000000000000000C06080318031803131
:102C7000001B001B001B000E000E000600000000E1
:102C800000000000000000000000000080DD80DD8A
:102C900080DD0055005500550077007700220022A6
:102CA0000000000000000000000000000000000024
:102CB000806100330033001E000C000C001E003346
:102CC00000338061000000000000000000000000F0
:102CD000000080618061803100330033001B001BE5
:102CE000001B000E000E000E001C007C0070000097
:102CF0000000000000000000C07FC07F80010003D2
:102D00000006000C00180030C07FC07F00000000EB
:102D1000000080038007000600060006000600068B
:102D2000000E001C001C000E000600060006000637
:102D30000006800780030006000600060006000665
:102D40000006000600060006000600060006000653
:102D5000000600060006000600060038003C000CD5
:102D6000000C000C000C000C000E00070007000E09
:102D7000000C000C000C000C000C003C00380000A3
:102D80000000000000000000000000008038807F8C
:102D900000470000000000000000000000000000EC
:102DA0000000000000000000000000000000000023
:102DB0000000000000000000000000000000000013
:102DC0000000000000000000000000000000000003
:102DD000000000000000E003E003E003E003E00384
:102DE000E003E003E003C003C003C001C001C00171
:102DF000C001C001000000000000E003E003E003A8
:102E0000000000000000000000003C1E3C1E3C1EB4
:102E10003C1E3C1E3C1E3C1E00000000000000004A
:102E200000000000000000000000000000000000A2
:102E30000000000000000000000000000000CE01C3
:102E4000CE03DE039E039C039C07FF3FFF7F3807F2
:102E5000380F780F780F780EFFFFFFFFF01EF01C81
:102E6000E01CE03CE03DE039000000000000000014
:102E70000000FC03FE0FEE1FE01EE01EE01EE01E41
:102E8000E01FE00FE007F003FC01FE01FE01FE0180
:102E9000FE01FE01FE01FE3DFC3FF00FE001E001FE
:102EA000000000000000033E07F78FE78EE79EE377
:102EB000BCE3B8E7F8E7F0F7E03FC001FF03FF0726
:102EC000F307F30FF31EF33CF338F3787FF03FE0A2
:102ED00000000000000000000000E007F80F780F7D
:102EE000781F781F781F780FF00FE00F801FC37FC7
:102EF000C3FBE7F3F7F1F7F0FFF07FF03EF87F7CDC
:102F0000FF3FEF1F00000000000000000000E00392
:102F1000E003E003E003E003C003C00100000000A1
:102F200000000000000000000000000000000000A1
:102F30000000000000000000000000000000000091
:102F400000003F007C00F001E001C003C0078007E3
:102F50008007800F000F000F000F000F000F000F01
:102F6000800F80078007C007C003E001F0017C00EC
:102F70003F000F000000007E001FC007C003E001FB
:102F8000F001F000F000F800780078007800780098
:102F900078007800F800F000F000F001E001C003D4
:102FA000C007001F007E00780000E003C003C001DE
:102FB000CE39FF3F7F3F20037003F807780F3C1F97
:102FC00038060000000000000000000000000000C3
:102FD00000000000000000000000000000000000F1
:102FE00000000000000000000000C001C001C0019E
:102FF000C001C001C001C001FFFFFFFFC001C0014F
:10300000C001C001C001C0010000000000000000BC
:1030100000000000000000000000000000000000B0
:1030200000000000000000000000000000000000A0
:1030300000000000E003E003E003E003E001E00142
:10304000E001C0018003000000000000000000005B
:10305000000000000000000000000000FE3FFE3FF6
:103060000000000000000000000000000000000060
:103070000000000000000000000000000000000050
:103080000000000000000000000000000000000040
:10309000000000000000000000000000E003E0036A
:1030A000E003E003000000000000000000000F004B
:1030B0000F001E001E003C003C0078007800F0006D
:1030C000F000E001E001C003C00380078007000FAB
:1030D000000F001E001E003C003C0078007800F04D
:1030E0000000F007F80F7C1F3E3E1E3C1F7C1F7C3B
:1030F0000F780F780F780F780F780F780F781F7C84
:103100001F7C1E3C3E3E7C1FF80FF00700000000B5
:10311000000000000000F000F007F03FF03FF00179
:10312000F001F001F001F001F001F001F001F00117
:10313000F001F001F001F001F001F001FF3FFF3F6D
:1031400000000000000000000000E00FF83F7C3CA1
:103150003C003E003E003E003C003C007C00F8008D
:10316000F001E003C0078007000F001E003E003C96
:10317000FE3FFE3F00000000000000000000F00FD6
:10318000F81F7C1C3E003E003E003C003C00F80066
:10319000F00FF80F7C003E001E001E001E001E00F7
:1031A0003E007C1CF81FE01F000000000000000033
:1031B00000007800F800F800F801F803F807F807B5
:1031C000780F781E781E783C78787878FFFFFFFFBC
:1031D000780078007800780078007800000000001F
:1031E000000000000000FC1FFC1FFC1F001E001E52
:1031F000001E001E001EE01FF81FFC007C003E00A9
:103200003E001E003E003E003C007C1CF81FE01FFC
:1032100000000000000000000000FC01FE078E0F0F
:10322000001F001E003E003C003CF83DFC3F3E7F7E
:103230001F7E0F3C0F3C0F3C0F3C0F3E1F1E3E1FDE
:10324000FC0FF00300000000000000000000FF3F42
:10325000FF3FFF3F0F001E001E003C0038007800BB
:10326000F000F000E001E001C003C0038007800F20
:10327000800F000F001F001F000000000000000072
:103280000000F807FC0F3E1F1E1E1E3E1E3E1E1EA7
:103290003C1FF80FF007F80FFC1E3E3E1F3C1F7C42
:1032A0000F7C0F7C1F3C3E3FFC1FF007000000001E
:1032B000000000000000F007F80F7C1E3E3C1E3CA2
:1032C0001F7C1F7C1F7C1F7C1F3C3F3EFF1FEF07A6
:1032D0001F001E001E003E003C00F838F03FE01FBB
:1032E00000000000000000000000000000000000DE
:1032F000000000000000E003E003E003E003000042
:10330000000000000000000000000000E003E003F7
:10331000E003E003000000000000000000000000E7
:1033200000000000000000000000E003E003E003F4
:10333000E0030000000000000000000000000000AA
:10334000E003E003E003E003E001E001E001C0038B
:1033500080030000000000000000000000000300E7
:103360000F003F00FC00F003C00F003F00FE003FD5
:10337000C00FF003FC003F000F000300000000003E
:10338000000000000000000000000000000000003D
:1033900000000000000000000000FFFFFFFF000031
:1033A00000000000FFFFFFFF000000000000000021
:1033B000000000000000000000000000000000000D
:1033C00000000000000000E000F8007E801FE00721
:1033D000F8017E001F007E00F801E007801F007EDC
:1033E00000F800E000000000000000000000F01FF6
:1033F000FC3F3E381F381F381E001E003C0078007E
:10340000F000E001C003C003C007C00700000000D7
:103410000000C007C007C007000000000000000057
:103420000000F803FE0F1E1F0F3E7F3CFF78EF7970
:10343000C773C7F38FF38FF38FF39FF39FF3FF737C
:10344000FF7BF779003C1C1FFC0FF8030000000015
:10345000000000000000000000000000E003E003A6
:10346000F007F007F007780F780F7C0E3C1E3C1E2B
:103470003E3CFE3FFF3F1F780F780FF007F007F04C
:10348000000000000000000000000000000000003C
:10349000F83FFC3F3E3C1E3C1E3C1E3C3E3C7C3C00
:1034A000F03FF83F7E3C1F3C1F3C0F3C0F3C1F3C55
:1034B000FE3FF83F00000000000000000000000098
:1034C00000000000FF01FF07871F003E003C007C5A
:1034D00000780078007800780078007C007C003E5E
:1034E000003F831FFF07FF010000000000000000F5
:1034F0000000000000000000F07FFC7F7E781F7855
:103500001F780F780F780F780F780F780F780F7873
:103510000F781F781E787E78F87FE07F000000002B
:10352000000000000000000000000000FF3FFF3F1F
:10353000003E003E003E003E003E003EFE3FFE3F9D
:10354000003E003E003E003E003E003EFF3FFF3F8B
:10355000000000000000000000000000000000006B
:10356000FF1FFF1F001E001E001E001E001E001E6B
:10357000FF1FFF1F001E001E001E001E001E001E5B
:10358000001E001E000000000000000000000000FF
:1035900000000000FE03FF0F871F003E007C007C40
:1035A000007800F800F87FF87FF80F780F7C0F7C28
:1035B0000F3E8F1FFF0FFE03000000000000000001
:1035C00000000000000000001F7C1F7C1F7C1F7C8F
:1035D0001F7C1F7C1F7C1F7CFF7FFF7F1F7C1F7C4D
:1035E0001F7C1F7C1F7C1F7C1F7C1F7C0000000039
:1035F000000000000000000000000000FF3FFF3F4F
:10360000E003E003E003E003E003E003E003E003A2
:10361000E003E003E003E003E003E003FF3FFF3FDC
:10362000000000000000000000000000000000009A
:10363000FC1FFC1F7C007C007C007C007C007C006C
:103640007C007C007C007C007C0078007800F838EE
:10365000F03FC03F0000000000000000000000003C
:10366000000000001F3C1E3C3C3C783CF03CE03D30
:10367000E03FC03F803FC03FE03FF03DF03C783C42
:103680007C3C3E3C1F3C0F3C000000000000000062
:103690000000000000000000003E003E003E003E32
:1036A000003E003E003E003E003E003E003E003E2A
:1036B000003E003E003E003EFF3FFF3F0000000096
:1036C0000000000000000000000000001FF81FFCC8
:1036D0001FFC3FFE3FFE3FFE7FFF77FF77FFF7F7C0
:1036E000E7F7E7F3E7F3C7F307F007F007F007F0B2
:1036F00000000000000000000000000000000000CA
:103700000F7C0F7C0F7E0F7F0F7F8F7F8F7FCF7F90
:10371000EF7BEF79FF79FF78FF787F783F783F780C
:103720001F781F780000000000000000000000006B
:1037300000000000F007FC1F3E3E1F7C0F780F7852
:103740000FF80FF80FF80FF80FF80FF80F780F7841
:103750001F7C3E3EFC1FF007000000000000000040
:103760000000000000000000FC3FFF3F1F3E0F3E36
:103770000F3E0F3E0F3E1F3E3F3EFC3FF03F003EE0
:10378000003E003E003E003E003E003E00000000C5
:10379000000000000000000000000000F007FC1F17
:1037A0003E3E1F7C0F780F780FF80FF80FF80FF8D8
:1037B0000FF80FF80F780F781F7C3E3EFC1FF807BC
:1037C0007C003F000F00030000000000000000002C
:1037D000F03FFC3F7E3C3E3C1E3C1E3C3E3C3C3CA5
:1037E000FC3CF03FE03FF03DF83C7C3C3E3C1E3C66
:1037F0001F3C0F3C00000000000000000000000023
:1038000000000000FC07FE1F0E3E003C003C003C98
:10381000003EC01FF80FFE037F001F000F000F00C7
:103820001F203E3CFC3FF01F000000000000000095
:103830000000000000000000FFFFFFFFE003E003C6
:10384000E003E003E003E003E003E003E003E00360
:10385000E003E003E003E003E003E0030000000016
:103860000000000000000000000000000F7C0F7C42
:103870000F7C0F7C0F7C0F7C0F7C0F7C0F7C0F7CF0
:103880000F7C0F7C0F7C1E3C1E3C3E3EFC1FF00755
:103890000000000000000000000000000000000028
:1038A00007F007F007F80F780F7C1E3C1E3C1E3E09
:1038B0003C1E3C1F781F780FF80FF007F007F00749
:1038C000E003E00300000000000000000000000032
:1038D0000000000003E003F003F007F0E7F3E7F374
:1038E000E7F3E773F77BF77FFF7F7F7F7F7F7E7F45
:1038F0007E3F3E3E3E3E3E3E000000000000000097
:10390000000000000000000007F80F7C1E3E3E3E55
:103910003C1FF80FF007E007E003E003F007F80FA3
:103920007C0F7C1E3E3C1F780F780FF000000000DB
:1039300000000000000000000000000007F8077809
:103940000F7C1E3C1E3E3C1F780FF80FF007E00373
:10395000E003E003E003E003E003E003E003E0034F
:103960000000000000000000000000000000000057
:10397000FF7FFF7F0F001F003E007C00F800F0007B
:10398000E001E003C007800F000F001E003E007C36
:10399000FF7FFF7F00000000000000000000FF0725
:1039A00080078007800780078007800780078007DF
:1039B00080078007800780078007800780078007CF
:1039C000800780078007800780078007FF07FF07C1
:1039D000000000780078003C003C001E001E000F34
:1039E000000F80078007C003C003E001E001F00082
:1039F000F000780078003C003C001E001E000F0024
:103A00000F0007000000F07FF000F000F000F00071
:103A1000F000F000F000F000F000F000F000F00026
:103A2000F000F000F000F000F000F000F000F00016
:103A3000F000F000F07FF07F0000C000C001C00186
:103A4000E003E003F007F0077807780F380F3C1E1B
:103A50003C1E1E3C1E3C0F380F780778000000000B
:103A60000000000000000000000000000000000056
:103A70000000000000000000000000000000000046
:103A80000000000000000000000000000000000036
:103A90000000000000000000FFFFFFFF000000002A
:103AA0000000F00000000000000000000000000026
:103AB0000000000000000000000000000000000006
:103AC00000000000000000000000000000000000F6
:103AD00000000000000000000000000000000000E6
:103AE0000000F80FFC3F7C3C3E003E003E00FE071D
:103AF000FE1F3E3E3E7C3E783E7C7E7CFF3FCF1FDD
:103B000000000000000000000000003C003C003C01
:103B1000003C003C003CF83DFE3F3E3F1F3E0F3C5A
:103B20000F3C0F3C0F3C0F3C0F3C1F3C1E3C3E3FEC
:103B3000FC3FF03B0000000000000000000000001F
:103B400000000000000000000000FE03FF0F871FC0
:103B5000003E003E003C007C007C007C003C003EBF
:103B6000003E871FFF0FFE03000000000000000062
:103B700000001F001F001F001F001F001F00FF0785
:103B8000FF1F3F3E1F3C1F7C1F7C1F7C1F781F7840
:103B90001F7C1F7C3F3C7F3EFF1FDF0F00000000AB
:103BA0000000000000000000000000000000000015
:103BB0000000F803FC0F3E1F1E3E1F3C1F7CFF7FD2
:103BC000FF7F007C007C003C003E071FFF0FFE03D0
:103BD00000000000000000000000FF01E103C0033E
:103BE000C007C007C007FF7FFF7FC007C007C0072F
:103BF000C007C007C007C007C007C007C007C0078D
:103C0000C007C00700000000000000000000000026
:103C100000000000000000000000EF07FF1F7F3ED3
:103C20001F3C1F7C1F7C1F781F781F781F7C1F7C08
:103C30003F3C7F3EFF1FDF0F1E001E001E007C3832
:103C4000F83F003C003C003C003C003C003CFC3D9C
:103C5000FE3F9E3F1F3F1F3E1F3C1F3C1F3C1F3C23
:103C60001F3C1F3C1F3C1F3C1F3C1F3C0000000032
:103C7000000000000000F001F00100000000000062
:103C80000000E07FE07FE001E001E001E001E00111
:103C9000E001E001E001E001E001E001E001E0011C
:103CA00000000000000000000000F800F800000024
:103CB000000000000000F83FF83FF800F800F800AE
:103CC000F800F800F800F800F800F800F800F80034
:103CD000F800F800F800F800F000F071E07F003C18
:103CE000003C003C003C003C003C1F3C3E3C7C3C1B
:103CF000F83CF03DE03DC03FC03FE03FF03DF83CC8
:103D00007C3C3E3C1F3C1F3C0000000000000000CB
:103D10000000F07FF001F001F001F001F001F0018E
:103D2000F001F001F001F001F001F001F001F0010B
:103D3000F001F001F001F001F001F00100000000DD
:103D40000000000000000000000000000000000073
:103D500000009EF7FFFFFFFFFFFFE7FBE7F9C7F15A
:103D6000C7F1C7F1C7F1C7F1C7F1C7F1C7F1C7F193
:103D70000000000000000000000000000000000043
:103D8000000000000000FC3DFE3F9E3F1F3F1F3E25
:103D90001F3C1F3C1F3C1F3C1F3C1F3C1F3C1F3C4B
:103DA0001F3C1F3C0000000000000000000000005D
:103DB00000000000000000000000F007FC1F3E3E75
:103DC0001F3C1F7C0F780F780F780F780F781F7CBF
:103DD0001F3C3E3EFC1FF0070000000000000000FA
:103DE0000000000000000000000000000000F83D9E
:103DF000FE3F3E3F1F3E0F3C0F3C0F3C0F3C0F3C35
:103E00000F3C1F3C1E3E3E3FFC3FF83F003C003C49
:103E1000003C003C003C00000000000000000000EE
:103E20000000EE07FE1F7E3E1E3C1E7C1E781E78A4
:103E30001E781E781E781E7C3E7C7E3EFE1FDE0FA6
:103E40001E001E001E001E001E00000000000000DC
:103E50000000000000007F1FFF1FE71FC71F871F14
:103E6000001F001F001F001F001F001F001F001F5A
:103E7000001F001F00000000000000000000000004
:103E800000000000000000000000FC07FE1F0E1EE6
:103E9000003E003E003FE01FFC07FE003E001E000B
:103EA0001E003E3CFC3FF01F000000000000000030
:103EB0000000000000000000800780078007FF7FEF
:103EC000FF7F8007800780078007800780078007C3
:103ED000800780078007C007FF03FF010000000084
:103EE00000000000000000000000000000000000D2
:103EF00000001E3C1E3C1E3C1E3C1E3C1E3C1E3C4C
:103F00001E3C1E3C1E3C3E3C7E3CFE3EFE1FDE0F29
:103F100000000000000000000000000000000000A1
:103F200000000000000007F00F780F781E3C1E3CD8
:103F30001E3E3C1E3C1E780F780FF00FF007F00776
:103F4000E003E003000000000000000000000000AB
:103F50000000000000000000000003F0E3F1E3F3C4
:103F6000E7F3F7F3F7F3F77F777F7F7F7F7F7F7F3D
:103F70003E3E3E3E3E3E3E3E000000000000000051
:103F800000000000000000000000000000000F7CA6
:103F90001E3E3C3E3C1FF80FF007F007E003F00721
:103FA000F807F80F7C1E3E3E1F3C1F780000000003
:103FB0000000000000000000000000000000000001
:103FC000000007F80F780F7C1E3C1E3C3C1E3C1E78
:103FD0003C1F780FF80FF007F007E003E003C00381
:103FE000C003C0038007800F007F000000000000B6
:103FF000000000000000FF3FFF3F1F003E007C006C
:10400000F800F001E003C007800F001F001E003C15
:10401000FF7FFF7F00000000000000000000FE01A5
:10402000E003C003C003C003C003E001E001E001FE
:10403000C001C003803F803FC003C001E001E00138
:10404000E001C003C003C003C003E003FE017E0023
:104050000000C001C001C001C001C001C001C00119
:10406000C001C001C001C001C001C001C001C00148
:10407000C001C001C001C001C001C001C001C00138
:10408000C001C0010000C03FE003E001E001E00129
:10409000E001C001C003C003C001E001FE00FE005A
:1040A000E001C001C003C003C001E001E001E00184
:1040B000E001E003C03F003F0000000000000000FE
:1040C00000000000000000000000000000000000F0
:1040D000073FC77FE773FFF17EF00000000000009C
:1040E00000000000000000000000000000000F01C0
:1040F00080961180FFB103012C2DB203012C2DB34A
:1041000006012C2D012C2DB40107C003A20284C18D
:1041100001C5C2020A00C3028A2AC4028AEEC5018E
:104120000E20003601C03A0105022A040000007F7B
:104130002B040000007F04E010021C071237322914
:104140002D29252B3900010310E110031D07062E30
:104150002C292D2E2E373F0000021013800A2980B3
:1041600064000000844100080000002028000000D6
:1041700028010008AC4100082800002000070000CA
:1041800044010008010000001000000000000000D1
:104190000024F400070A0000DA1800080B120000DF
:0C41A00046200008101A0000A22D0008A4
:04000005080000ED02
:00000001FF
